S01E000052544F532D4F4C45442D58706C61696E65642D50726F2E73726563AD
S214400000682E4020F91E4000F71E4000F71E4000B4
S214400010F71E4000F71E4000F71E4000000000009C
S214400020000000000000000000000000D122400058
S214400030F71E40000000000071234000D923400016
S214400040F71E4000F71E4000F71E4000F71E400017
S214400050F71E4000F71E4000F71E4000F71E400007
S214400060F71E400000000000E91B4000FD1B40005A
S214400070111C4000F71E4000F71E4000F71E4000CF
S214400080251C4000391C4000F71E4000F71E40006B
S214400090F71E4000F71E4000F71E4000F71E4000C7
S2144000A0F71E4000F71E4000F71E4000F71E4000B7
S2144000B0F71E4000F71E4000F71E4000F71E4000A7
S2144000C0F71E4000F71E4000F71E4000F71E400097
S2144000D000000000F71E400000000000F71E400031
S2144000E0F71E4000F71E4000F71E4000F71E400077
S2144000F0F71E4000F71E4000F71E4000F71E400067
S214400100F71E4000F71E4000F71E4000F71E400056
S214400110F71E400000000000000000000000000045
S214400120F71E4000F71E4000F71E4000F71E400036
S214400130F71E400000000000F71E4000F71E40007B
S21440014010B5054C237833B9044B13B10448AFF3CC
S21440015000800123237010BDD80940200000000015
S2144001601CC940000C4B43B10C480D4910B5AFF3C9
S21440017000800C48036823B910BD0A48036833B9A9
S2144001807047094B002BF7D0BDE810401847064B88
S214400190002BF5D0184700BF000000001CC94000E7
S2144001A0DC0940201CC940000000000008B5074B91
S2144001B0984203D0064B984204D008BD1520054B04
S2144001C0984708BD2A20034B9847F6E70080004032
S2144001D0008005406D1D4000436823F47023436053
S2144001E04368090401F4702119434160704730B4F4
S2144001F043F69924056915F0020F03D1013CF9D165
S21440020001200CE0446814F0020F06D0120402F4F9
S214400210702211430BB141F08071C160002030BCA8
S214400220704732B900EB8100036B23F00103036390
S214400230704700EB8100036B43F001030363704794
S21440024032B900EB8100036B23F00203036370476F
S21440025000EB8100036B43F0020303637047042AFC
S21440026003D06AB1082A16D0704700EB8100036BB2
S21440027023F008030363036B43F0040303637047F0
S21440028000EB8100036B23F008030363036B23F04A
S21440029004030363704700EB8100036B43F00803DD
S2144002A00363E1E700EB81010B6B23F0F0030B6384
S2144002B00B6B1A430A637047431E1944B1FBF0F0B8
S2144002C0431EFE2B94BF00B24FF0FF3070477AB10A
S2144002D010B4144600EB81010B6B23F47F430B6391
S2144002E00A6B42EA04220A6300205DF8044B70471A
S2144002F04FF0FF3070470000284B99424BD8A3F58B
S2144003007A5399422DD910B4254CA4FB0234A40B41
S214400310033C244B0B449B00B2FBF3F2033AFF2C06
S2144003201DD9002101316408FF2C01D90629F9D9CD
S214400330FF2A07D9062905D801315208FF2A01D9D4
S2144003400629F9D913029BB2090401F4E0210B43B4
S214400350E4B22343036100205DF8044B704700215C
S214400360E6E74900B2FBF1F2033AFF2A11D900232F
S21440037001335208FF2A01D9062BF9D9110289B256
S2144003801B0403F4E0230B43D2B21A43026100205D
S21440039070470023F2E70120704700BF801A06002E
S2144003A0F11976050012FD3F08B54FF0FF32826224
S2144003B0026A80220260026B0822026020220260EB
S2144003C0042202600A684968034B9847012814BF14
S2144003D00020012008BD00BFF9024000CA68002A7C
S2144003E04CD070B48C68002646604B681B0203F401
S2144003F0407343F480530D7C2D0405F4FE052B43D7
S2144004004360C6604D685DB10B78012D02DD4E78C5
S21440041046EA0323022D04DD897841EA032300E0FF
S2144004200023C36001230360022512E0056013F039
S214400430020F1BD0036B2370036A13F0010FFBD02F
S214400440036A002070BC7047036B04F8013B013A16
S214400450F2D0036A13F4807F14D147F23051012A58
S214400460E4D013F0020FEFD1002AE5D0036A13F46C
S214400470807F05D10139F2D10920E3E7012070479A
S2144004800520DFE70520DDE7CB68002B43D070B4BE
S2144004908C68002646600A7C120402F4FE024D6810
S2144004A02D0205F440752A434260C6604D685DB132
S2144004B00A78012D02DD4E7846EA0222022D04DD3E
S2144004C0897841EA022200E00022C26004E014F883
S2144004D0012B4263013B0FD0026A12F4807F1ED18B
S2144004E012F0040FF3D1026A12F4807F15D112F095
S2144004F0040FECD1002BF6D1036A13F4807F11D1A0
S21440050013F0040FF8D002230360036A13F0010FC0
S214400510FBD0002004E001207047052000E00520C5
S21440052070BC70470520FBE700B587B0002306AADD
S21440053002F8153D0392012204928DF814108DF8AE
S2144005400430029301A9024B984707B05DF804FBBC
S214400550890440004FF07E53436100238361C361AA
S214400560036243628362C362012280F830200A4AF3
S2144005704263C363036443648364C36403650023C4
S21440058080F85430836580F85C3080F85D300366D0
S21440059080F86430704700BF0000204138B52DED2C
S2144005A0028B04460D460B78037091ED018A80ED70
S2144005B0018AD1ED027AF5EE407AF1EE10FA01D0DA
S2144005C00B6903BB234BA360D5ED037AF5EE407A67
S2144005D0F1EE10FA01D02B6943BB1E4BE3602B694A
S2144005E0236194F830300BB984ED0D8AF2EE047A2C
S2144005F077EEC87AF0EE086A87EEA67A84ED0E7A31
S214400600BDEC028B38BD9FED147A67EE877A17EE05
S214400610900A124B9847F6EE007A07EE100A67EEFD
S214400620277A67EEA77AC4ED027ACDE79FED0A7A7D
S21440063067EE877A17EE900A084B9847F6EE007AF0
S21440064007EE100A67EE277A67EEA77AC4ED037ABC
S214400650C5E700BFFFFF7F7F35FA8E3C81494000EB
S21440066070B586B0064601AC064D0FCD0FC42B685C
S214400670236001A93046044B98473046034B9847C1
S21440068006B070BDDCBD40009D05400055054000ED
S21440069010B4044614310FC984E80F0020465DF8B4
S2144006A0044B704710B52DED048B044608EE101A27
S2144006B090ED087AD0ED077A67EEA76AB6EE009A14
S2144006C079EE666A27EE076AD0ED055A27EE257A58
S2144006D0D0ED065A67EEA57A76EEC66A16EE901A02
S2144006E077EE277A17EE900A2F4B9847DFED2F8A42
S2144006F068EE288A07EE900A77EEE88A68EE898ADE
S21440070018EE900A2A4B984708EE100A18EE900A00
S214400710284B984707EE900AB1EE675A94ED056A63
S214400720D4ED065AD4ED077AD4ED084A9FED227AE6
S21440073025EE874A67EE873A26EE073A24EE877A12
S21440074068EE066A76EEC46A76EEE36A65EE242ABA
S21440075076EEE26AC4ED056A68EE256A76EE836A4E
S21440076076EE876A67EE852A76EEE26AC4ED066A1A
S21440077068EE277A77EEC77A77EE837A65EE855A03
S21440078077EEA57AC4ED077A28EE248A38EE238AD7
S21440079038EE448A26EE056A38EE068A84ED088AE4
S2144007A0BDEC048B10BD00BF9D4A400035FA8E3C20
S2144007B009494000814940000000000070B52DED19
S2144007C00A8B90B0044605A880E80E009DED249A5A
S2144007D004F124031EAA07CA83E8070094F83030C1
S2144007E0BBB1D4ED0E7A29EE277AD4ED0D7A77EEAA
S2144007F0C77AC4ED0D7A94ED017AF4EEC77AF1EE3D
S21440080010FA06D584ED0D7A002384F8303084F84B
S2144008105C302378012B08D9022B6FD09FED9FAA1E
S214400820F0EE4AAAB0EE4ABA1DE094ED067A94ED90
S21440083008AA94ED056AD4ED07AA27EE0ABA66EE32
S2144008402A7A3BEE67BA6AEE2AAA27EE067A7AEE4C
S21440085087AA26EE066AB6EE007A36EE477A2AEE83
S2144008600AAA37EE0AAA012384F85430DDED1E9A10
S2144008709DED1F8ADDED208AF5EE409AF1EE10FAE6
S21440088018BF0023B5EE408AF1EE10FA03F00103DC
S21440089018BF0023002B52D0F5EE408AF1EE10FA36
S2144008A04DD19FED7E8AF0EE488AF0EE489A0123BD
S2144008B084F85D309DED21CADDED22CADDED23BA18
S2144008C0F5EE40CAF1EE10FA18BF0023B5EE40CA66
S2144008D0F1EE10FA03F0010318BF0023002B00F0DE
S2144008E0AA80F5EE40BAF1EE10FA40F0A480DFEDB3
S2144008F06B5AF0EE656AB0EE656A67E194ED057A8C
S214400900D4ED075A94ED065A94ED086A27EE25BAB8
S21440091065EE067A3BEE67BA65EE86AA27EE055A7E
S2144009207AEE85AAF1EE6AAA27EE077AB6EE00AA14
S2144009303AEE477A26EE066A37EE46AA93E7A26D67
S21440094023699A4259D869EEA97A28EE087A77EE52
S214400950877A28EEA87A77EE877A514B17EE902A58
S214400960A3EB620306EE903A9FED4E7A67EE877AE7
S21440097067EEA67A67EEA67A9FED4B7A77EE677AB1
S21440098067EEA67A27EEA95A67EE885A68EEA78AD7
S21440099025EE8A7A6AEEA87A77EE679A68EE8B8AB0
S2144009A065EE0A6A78EEE68A2AEE858A65EE8B5A06
S2144009B038EE658AC4ED0F9AC4ED108A84ED118A2C
S2144009C094F8303073B969EEA97A28EEA87A77EEB3
S2144009D0877A48EE087A94ED027AF4EEC77AF1EE1A
S2144009E010FA1ED8002384F85430A36D092B8CBF10
S2144009F00A2200229B1AA36559E709AE04F11405A2
S214400A0095E80F0086E80F002046284B984796E862
S214400A100F0085E80F000023A365012384F85C30AF
S214400A2091E7A36D0133A3659FED1C8AF0EE488ADB
S214400A30F0EE489A3BE7002384F86430226E236940
S214400A409A420FD82378012B00F05781002B33D0E1
S214400A50022B00F07381DFED114AF0EE643AB0EEFF
S214400A60644A47E025788DED0DBACDED0EAA8DEDA2
S214400A700FAA21AB93E807008DE8070010AB13E9F7
S214400A800E0028460A4DA84701462046094B98477F
S214400A9000232366012384F86430D3E70000000077
S214400AA012141F5F12D3363FFF51D83F5505400002
S214400AB0050E4000A5064000D4ED066AD4ED077A40
S214400AC0D4ED054A94ED086A26EEA74A24EE867AC7
S214400AD034EE074A64EEA45AF6EE003A75EEE35A50
S214400AE067EEA73A75EEA33A67EE867A66EEA46A94
S214400AF077EEE64A2AEEAB6A6CEE8A7A36EE676A9C
S214400B002CEE0A7A6BEE2BBA37EE6B7A6BEE2C7ABB
S214400B106AEE8C6A77EEE66A26EE065A67EE077A43
S214400B2035EE275A66EEA67A35EE275A994B15EEDD
S214400B30102AA3EB620305EE903ADFED977A25EE96
S214400B40275A25EE255A25EE255ADFED947A77EE7C
S214400B50C57A67EEA57A67EE865A27EE877A67EEFD
S214400B60A67A27EE246A67EEA36A36EE666A67EED2
S214400B70847A65EEA46A77EEE66A65EEA35A27EEB7
S214400B80047A75EEC75A84ED126AC4ED136AC4ED52
S214400B90145A94F830307BB966EE067A26EEA67A7A
S214400BA077EE877A45EEA57A94ED037AF4EEC77A27
S214400BB0F1EE10FA00F2E380002384F85D30236EF5
S214400BC0092B8CBF0A2200229B1A2366D4ED0D7A8D
S214400BD036EE297A27EE277A9FED715A9DED056A03
S214400BE026EE056A37EE067A27EE097A78EEA66A8A
S214400BF066EEA76ADDED068A68EE858A76EEA86A16
S214400C0066EE896A38EE258A28EE278ADDED077A71
S214400C1067EE857A38EE278A68EE097A94ED053ACB
S214400C20D4ED063A94ED074A94ED085A63EEC75A57
S214400C3026EE846A75EEC65A27EE856A75EEC65A63
S214400C4075EE835A67EE034A27EE846A74EE864A48
S214400C5026EE856A74EEC64A74EEA34A26EE836A8A
S214400C6067EEA32A36EE626A67EE052A36EE226AF9
S214400C7036EE046A67EE837A66EEA36A77EEA67A65
S214400C8027EE047A77EEC77A77EE857A25EEA57A50
S214400C9064EEA46A37EE267A66EE066A37EE267A61
S214400CA067EEA76A37EE267A3A4B17EE102AA3EB82
S214400CB0620305EE103ADFED386A27EE267A27EE15
S214400CC0057A27EE057ADFED356A36EEC77A27EEE7
S214400CD0057A67EE255AC4ED055A67EE246AC4EDD8
S214400CE0066A27EE066A84ED076A27EE277A84EDC1
S214400CF0087A10B0BDEC0A8B70BDD4ED056AD4ED11
S214400D00067A26EEA64AB6EE007A37EE447A27EE04
S214400D10A74A37EE444AD4ED084A94ED075A66EEA1
S214400D20A45A27EE857A75EEC73A67EEA44A66EE71
S214400D30856A74EEA64AF1EE644ADBE6D4ED066AAE
S214400D40D4ED077AD4ED054A94ED086A26EEA77AE4
S214400D5024EE864A37EE047AB1EE474A64EEA43A69
S214400D60F6EE005A75EEE35A67EEA73A75EEE33AAA
S214400D7066EEA46A67EE867A76EEE74ABAE6236EB1
S214400D8001332366DFED075AF0EE656AB0EE656A1A
S214400D901CE700BF12141F5F12D3363FFF51D83FE7
S214400DA035FA0E3C0000000030B591B0054609AC5F
S214400DB084E80E0000230D930E930F93179B069323
S214400DC003AB10AA12E9070083E8070014AB93E8C8
S214400DD007008DE8070094E80E002846074CA04719
S214400DE095F8303013B195F85C300BB111B030BD8A
S214400DF000212846024B9847F8E700BFBD07400051
S214400E00A506400000B585B00DF1100E0EE90E00A7
S214400E10DDED014ADDED027A9DED037A9DED065A41
S214400E20DDED075A9DED084A01287CD028B10228FE
S214400E3000F0ED80DFEDB27A70E067EE843A67EE60
S214400E40256A73EEE63A67EE056A24EE844A36EE85
S214400E50C44A24EEA56A27EE855A36EE455A63EE16
S214400E60A35A64EE046A75EEA65A65EE056A75EEF8
S214400E70A65AA44B15EE902AA3EB620206EE102A61
S214400E80DFEDA12A65EEA25A65EE865A65EE865AD1
S214400E909FED9E3A73EE655A25EE866A66EE235AB5
S214400EA026EE044A26EE056A24EE075A66EE276AC0
S214400EB035EE665A26EE246A25EE877A36EE476A7F
S214400EC065EEA77A24EE244A37EEC44A25EE057A24
S214400ED026EE066A37EE066A24EE044A36EE046AC2
S214400EE016EE102AA3EB620307EE903A26EE226A2D
S214400EF026EE276A26EE276A33EE466A26EE276AED
S214400F0066EE057A17EE901A15EE900A804B9847D3
S214400F10DFED807A07EE100A67EE277A17EE900A22
S214400F2005B05DF804FB67EE843A67EE256A73EE1B
S214400F30E63A67EE056A24EE844A36EEC44A64EE24
S214400F40A55A67EE856A75EEE65A23EEA36A64EE06
S214400F50046A36EE266A65EEA56A36EE266A694B60
S214400F6016EE102AA3EB620206EE902ADFED662A02
S214400F7026EE226A26EE266A26EE266A9FED633A1B
S214400F8033EE466A66EE266A26EEA35A26EE844A74
S214400F9066EEA56A64EE075A26EEA76A75EEC65A4E
S214400FA066EEA46A25EE077A76EEC76A65EE277A7D
S214400FB024EE244A37EEC44A25EEA57A66EEA66AA3
S214400FC077EE266A24EE044A76EE846A16EE902A77
S214400FD0A3EB620307EE903A66EEA26A66EEA76A55
S214400FE066EEA76A73EE666A66EEA76AF1EE457A23
S214400FF017EE901A66EEA57A17EE900A444B98477D
S214401000DFED447A07EE100A67EE277A86E7F1EEC0
S214401010644AF1EE677AB1EE476A27EE843A26EEE6
S214401020257A33EE473A66EE053A24EE844A33EEA6
S214401030C44A64EEA55A27EE855A75EEC55A63EE45
S214401040036A24EE047A76EE876A25EEA57A76EE73
S214401050876A2C4B16EE902AA3EB620207EE102A04
S214401060DFED292A66EEA26A66EE876A66EE876A32
S214401070DFED263A73EEE66A26EE877A27EE035AC7
S21440108027EE044A27EE257A64EE065A67EE276A6C
S21440109075EEE65A27EE247A25EE066A37EE467A4D
S2144010A065EE277A24EE244A77EEC47A65EEA56A82
S2144010B027EE077A36EE877A67EEA77A37EE277AF4
S2144010C017EE102AA3EB620307EE903A27EE227A39
S2144010D027EE277A27EE277A33EEC77A27EE277A47
S2144010E067EE257A17EE901A15EE100A084B9847C9
S2144010F0DFED087A07EE100A67EE277A0EE700BFA4
S2144011000000000012141F5F12D3363FFF51D83F35
S2144011109D4A4000E02E6542014B1860704700BF74
S214401120F4094020024B1B6803EBC0104254704742
S214401130F4094020024B1B6803EBC010405C70472C
S214401140F40940202DE9F0478418802C02DDC0F1D8
S2144011508004E2B222B3CD08A1EBC501012606FA0F
S21440116001F1CEB2012B1DD0002B35D0022B17D16A
S2144011700138C7B2D419E4B2DFF890A04FF00009A6
S214401180DFF88C8021462846D04786EA00024B4648
S214401190D2B221462846C047013CE4B2BC42F1D117
S2144011A0BDE8F0870138C7B2D419E4B2DFF85CA0D6
S2144011B04FF00009DFF8588021462846D04746EAD7
S2144011C000024B46D2B221462846C047013CE4B214
S2144011D0BC42F1D1BDE8F0870138C7B2D419E4B2B9
S2144011E0DFF82880CE43DFF8289021462846C047BF
S2144011F006EA00020023D2B221462846C847013CF0
S214401200E4B2BC42F1D1BDE8F08700BF45144000CF
S214401210411340002DE9F8439DF820708BB11C46E1
S214401220904606464D1EEDB22C44E4B2DFF81890C8
S2144012303B46424621463046C847013CE4B2AC42B3
S214401240F6D1BDE8F88300BF451140002DE9F04FC8
S21440125083B00446884691469B465B7A9BF80820B6
S2144012600021009149464046214DA8479BF8003052
S21440127013B103B0BDE8F08F9BF80820D30812F0F6
S214401280070F18BF01339BF809A09BF80A70E71BAD
S21440129017FB0AF717FB03F7DBF8043013FA87F758
S2144012A01FE06400E4B20135EBB29E4210D9EBB2C7
S2144012B008EB0300C0B213F0070F08BF17F8014B46
S2144012C014F0800FEDD0012249460A4B9847E8E7D4
S2144012D009F101095FFA89F90AF1FF3A1AF0FF0AA3
S2144012E0C7D09BF80860002EF2D000252C46DEE7DB
S2144012F015124000E11340002DE9F843044690469D
S2144013001D4689460D4F0E4608E06A7A0132424431
S2144013105FFA82F8B14614F8013F6BB120780A288C
S214401320F3D00D28F7D02B4642464946B8472B7A8D
S21440133099445FFA89F9EEE7BDE8F8834D1240001C
S21440134070B504460D4616461BB90D4B9847B0423D
S21440135015D03246294620460A4B984704F00F00DF
S21440136040F0B000084CA047C5F3021040F0100013
S214401370A04705F00F00A0473046044B984770BD85
S21440138035114000251140005114400071164000B0
S2144013902DE9F0410D480E4B98470E4B984740209C
S2144013A00D4B984700254FF001082F460B4E002462
S2144013B043463A46E1B22846B0470134802CF7D13E
S2144013C00135EDB2042DF2D1BDE8F081F809402098
S2144013D01911400091144000511440004113400040
S2144013E0C3092AD11F2928D82DE9F04114460546BD
S2144013F0CE08A1EBC601012202FA01F75FFA87F890
S214401400014630460D4B98470246012C09D064B140
S214401410022C0ED0002329463046094CA047BDE892
S214401420F08148EA0002D2B2F4E720EA0702D2B2DC
S214401430F0E788EA0002D2B2ECE770473511400088
S2144014404113400008B5014B984708BD3511400090
S21440145038B505460822094B5A63094C01212046F7
S214401460084B984701231A4629462046064CA04773
S2144014704FF4FD70054B984738BD00BF00100E4036
S21440148000800040D9014000EF01400001004020AC
S2144014902DE9F843664D4FF400362E61C5F8A0603E
S2144014A0644B08271F61C3F8A0706E66C5F890604D
S2144014B06E656E62C5F880602A6F22F400322A6735
S2144014C06A6F22F400326A675F66C3F890705F65A1
S2144014D05F62C3F880701A6F22F008021A675A6F6C
S2144014E022F008025A671F602E601F632E63DFF8E3
S2144014F07C8100234FF480024FF0805140464E4C92
S214401500A04700234FF400124FF080514046A047BA
S21440151000234FF000724FF080514046A047002312
S2144015204FF480024FF080514046A04700234FF4CE
S21440153000124FF080514046A04700234FF0007203
S2144015404FF080514046A0473C4C4FF00209C4F84B
S21440155000904FF08008C4F80080636843F00103B1
S21440156063603A4601212046354B984700220121C8
S2144015702046344B9847002201212046324B98475C
S214401580636823F0020363600022012120462F4B4C
S2144015909847636823F080036360636843F01003F2
S2144015A063602B492B482C4B9847C2B201212046FA
S2144015B02A4B984720462A4B9847012323606E6360
S2144015C040F6B830274CA0472E6340F6B830A047C8
S2144015D02E63A820244CA0471F20A047D320A04716
S2144015E00020A0474020A047A120A047C820A047F1
S2144015F0DA20A0474846A0478120A0478F20A04732
S214401600A420A047A620A047D520A0474046A047F4
S2144016108D20A0471420A047DB20A0474020A047AD
S214401620D920A047F120A047AF20A047BDE8F883C7
S21440163000120E4000100E40591A40000080004034
S2144016405F0240002302400041024000A5024000E5
S21440165080D1F00880841E00B9024000CF024000CE
S214401660AD014000010040205114400000140E40DF
S21440167038B505460822094B1A63094C0121204615
S214401680084B984701231A4629462046064CA04751
S2144016904FF4FD70054B984738BD00BF00100E4014
S2144016A000800040D9014000EF014000010040208A
S2144016B010B51048104B98473E2100200F4B9847D6
S2144016C00F4CA0470028FCD00E4B98470E4A0F4BB5
S2144016D09A620F4CA0470028FCD002200D4B98473A
S2144016E000200D4B98470D4B98470248024B9847B1
S2144016F010BD00BF00A3E111CD204000E91C400012
S2144017003D1D40004D1D4000013F182000060E4084
S2144017105D1D40004D1C4000851C4000C11F400020
S2144017202DE9F04180B90C469046002A0FDD8F180F
S214401730084E094D306821462B6898470134BC4214
S214401740F8D14046BDE8F0814FF0FF38F9E78046D3
S214401750F7E700BFF00D4020E80D40200138022892
S21440176015D82DE9F0410E4614469AB10D46DFF8DD
S21440177038800C4FD8F8000015F8011B3B68984796
S21440178000280ADBA81B013CF4D1BDE8F0814FF0ED
S214401790FF3070471046BDE8F0814FF0FF30BDE89F
S2144017A0F08100BFEC0D4020F00D4020F8B54FF41E
S2144017B000425C4B5A60BFF34F8FBFF36F8F5A4B5C
S2144017C00022C3F850225A6942F400325A61BFF3ED
S2144017D04F8FBFF36F8FD3F88070C7F34E3607F046
S2144017E007000430C7F3C907B7FA87FE0EF01F0E8E
S2144017F0BFF34F8F4FF0FF3404FA00FC06FA00F0B8
S21440180004FA0EF407FA0EFE1D463A46734640EAC0
S2144018100301C5F86012013A2344B2F1FF3FF6D106
S214401820013E6044B6F1FF3FEFD1BFF34F8F3E4BD2
S2144018305A6942F480325A61BFF34F8FBFF36F8FBD
S2144018403A4A3B495160A1F580715160BFF34F8FD2
S214401850BFF36F8FD3F8902222F00102C3F8902294
S214401860D3F8942222F00102C3F89422BFF34F8F9C
S214401870BFF36F8F0A202F4CA0470B20A0470C20A9
S214401880A0471020A0471120A0472B4B4FF4807252
S2144018901A61C3F8A0201A63A3F580634FF4006270
S2144018A05A61C3F8A0205A66C3F890205A651A6257
S2144018B0C3F88420196F21F400611967596F21F429
S2144018C000615967C3F8C020C3F8D420C3F8B020DD
S2144018D04FF400121A66C3F890205A655A62C3F84D
S2144018E08020196F21F400111967596F21F40011F7
S2144018F059675A60114AD2F8143143F01003C2F8BF
S21440190014310F4B10221A66C3F890205A655A625B
S214401910C3F88020196F11431967596F11435967EF
S2144019205A60F8BD50180E4000ED00E0000C0E4026
S2144019300C08005A6D1D400000120E400080084002
S21440194000100E40C0F8841053004FF40042B2FB23
S214401950F3F2013AC2F30D02C0F88C2070470163DF
S2144019607047416370474264B1F1C05F3AD013D8C4
S214401970B1F1006F25D0B1F1805F0AD1036F1343F8
S2144019800367436F416F0B4023EA0203436742609D
S21440199070470029FBD17047B1F1205F21D009D8AC
S2144019A0B1F1005FF3D1036F13430367436F1343F3
S2144019B04367ECE7B1F1405F13D0B1F1605F10D000
S2144019C0E5E710B4016F046FD34321401C4619402D
S2144019D00167436F416F0B402340436742605DF8A9
S2144019E0044B7047036F016F0B4023EA0203036703
S2144019F0436F13434367CAE7416412F0010F0DD1AA
S214401A00016612F00A0F0BD0016212F0020F09D1E4
S214401A1012F0080F08D0C0F8841005E04166F0E7E1
S214401A204162F2E7C0F8801041610160704710B42F
S214401A30019C41644CB901664BB101654AB94163AA
S214401A40016101605DF8044B70474166F4E741650B
S214401A50F4E70163F4E7000070B582B00546164629
S214401A601C46B1F1005F14D00AD9B1F1405F24D0D2
S214401A70B1F1605F21D0B1F1205F17D000201AE0AD
S214401A80B1F1805F05D0B1F1C05F02D0B1F1006F17
S214401A90F4D132462846114B984714F0010F02D134
S214401AA02E66012007E06E66012004E01A463146A5
S214401AB00B4B9847012002B070BD04F00103009321
S214401AC0C4F38003B1F1605F14BF002201223146A7
S214401AD02846044CA0470120EDE700BF67194000A8
S214401AE0F91940002F1A400012F0100F12D0C0F81B
S214401AF0B01012F0200F07D0C0F8D41012F0400FEC
S214401B0005D0C0F8C0107047C0F8D010F6E7C0F84F
S214401B10C4107047C0F8B410704701647047C06C7A
S214401B207047806C704700002DE9F04104468846B7
S214401B300E4B9847054620460D4B9847054013D018
S214401B400C4C04F1600603E0B4420DD010345DB195
S214401B5020684045F8D161682942F5D0E368984747
S214401B60636825EA0305EFE7BDE8F0811F1B4000E8
S214401B70231B4000F80B4020F8B5184C2668062E6C
S214401B802AD84FF0000C6446154F04E00134E4B206
S214401B90A446A64209D3A64625017D598D42F5D1D5
S214401BA007EB04156D689542F0D10D4D4FEA0E1EB9
S214401BB005EB0E0445F80E106260A3600699E160DE
S214401BC00136664505D011461A46064B9847002012
S214401BD0F8BD02490E60F6E70120F8BD680C4020CB
S214401BE0F80B4020E91A400008B50A210148024B8C
S214401BF0984708BD000E0E40291B400008B50B2133
S214401C000148024B984708BD00100E40291B400073
S214401C1008B50C210148024B984708BD00120E40FB
S214401C20291B400008B510210148024B984708BDC3
S214401C3000140E40291B400008B511210148024BF4
S214401C40984708BD00160E40291B4000032811D0B7
S214401C50042812D002280CBF4FF480710021084A95
S214401C60136B23F440730B431363936E13F0080F08
S214401C70FBD070474FF44071F1E74FF40071EEE748
S214401C8000060E40174A136B23F070031843106388
S214401C90936E13F0080F0AD14FF4805311498A6EA1
S214401CA012F0080F03D1013BF9D1012070470D4ACD
S214401CB0136B23F0030343F002031363936E13F096
S214401CC0080F0AD14FF4805306498A6E12F0080F67
S214401CD005D1013BF9D10120704700207047002014
S214401CE0704700BF00060E40A0B90E48036A0902BE
S214401CF089B20D4A1A400D4B1343194301620246FE
S214401D00936E13F0010FFBD0064A116A084B0B4343
S214401D101362704703490B6A064A1A40064B134340
S214401D200B62704700060E40FCFFC8FF01003700FC
S214401D3000003701FCFFC8FE02003701024B986ED8
S214401D4000F48030704700BF00060E404FF000524F
S214401D50014B9A62704700BF00060E40024B986ED9
S214401D6000F00200704700BF00060E403F281ED815
S214401D701F280CD8114B9A6901238340934318D0EF
S214401D80012303FA00F00D4B1861002070472038FD
S214401D900A4BD3F808210123834093430BD00123F9
S214401DA003FA00F0054BC3F80001002070470120FD
S214401DB07047002070470020704700BF00060E4066
S214401DC0436913F0020F02D0C16100207047012022
S214401DD07047436913F0010F03D083690B700020EE
S214401DE070470120704710B40B01934214D9C900C4
S214401DF04B0803EBC202B2FBF1F2D3085C1E4FF66F
S214401E00FE718C4201D9012017E0416841F400215F
S214401E1041600CE0012010E0590801EBC202B2FB21
S214401E20F3F2D3085C1E4FF6FE718C42F2D81204D1
S214401E3002F4E0221A43026200205DF8044B704729
S214401E40084BC0F8E4300023436043628362882333
S214401E500360242303604FF4807303604FF4002331
S214401E60036070470041535570B505460C4616460C
S214401E700F4B984700220F4B1A60A4B13246216898
S214401E8028460D4B9847024678B96368A1680B43CD
S214401E9021690B43E1680B4306490B6069680B43B5
S214401EA06B60104670BD0122FBE70122F9E700BFD8
S214401EB0411E40006C0C4020E71D4000402303605C
S214401EC07047102303607047436913F0020F04D035
S214401ED0C1F30801C1610020704701207047436983
S214401EE013F0010F05D08369C3F308030B6000208D
S214401EF0704701207047FEE700B583B0254B264A61
S214401F009A4210D0254B234A9A420CD2013B9B1A48
S214401F1023F00303043313441F4951F8040B42F8DB
S214401F20040B9A42F9D11E4B1E4A9A420AD2013BF2
S214401F309B1A23F0030304331344002142F8041B86
S214401F409342FBD1184A194B23F07F039360EFF37B
S214401F501083B3FA83F35B09019372B6BFF35F8FC6
S214401F600022134B1A700199124A136843F4700307
S214401F701360BFF34F8FBFF36F8F29B101220C4B15
S214401F801A70BFF35F8F62B60B4B98470B4B984760
S214401F90FEE700BF000040201CC94000D809402092
S214401FA0640E4020D809402000ED00E000004000CC
S214401FB01800402088ED00E0596E40009D464000E5
S214401FC03B4B1B6B03F00303012B1DD083B1022B4D
S214401FD036D0374B1B6B03F07003702B5FD0344BFF
S214401FE01A6B3449C2F302120B68D3400B60704739
S214401FF0314B5B6913F0800F14BF4FF400424FF42F
S214402000FA422C4B1A60E4E7294B1B6A13F0807F98
S21440201003D02A4A274B1A60DBE7294A254B1A6029
S214402020234B1B6A03F07003102B05D0202BD0D116
S214402030224A204B1A60CCE7224A1E4B1A60C8E759
S2144020401B4B1B6A13F0807F16D01C4A194B1A6034
S214402050174B1B6B03F00303022BBAD1144A916A49
S214402060926A1448C1F30A41036801FB0333D2B2B3
S214402070B3FBF2F30360ACE7114A0E4B1A600C4B0D
S2144020801B6A03F07003102B05D0202BE0D10B4ABF
S214402090084B1A60DCE70B4A064B1A60D8E7054A3D
S2144020A013680949A1FB03135B081360704700BF20
S2144020B000060E401C00402010180E40001BB700C3
S2144020C000093D0000127A00ABAAAAAA164B984215
S2144020D013D9164B984215D9154B984216D9154B1D
S2144020E0984217D9144B984218D9144B984294BF2B
S2144020F0134A144A144B1A6070474FF08062124BD2
S2144021001A607047114A104B1A607047104A0E4BBF
S2144021101A6070470F4A0C4B1A6070474FF0042203
S214402120094B1A60704700BFBFF35E017FE7BD02F0
S2144021303FDB1C04FFCE7B05BFC2DA067FB63908FC
S2144021400005000400060004000C0E4000010004D8
S21440215000020004000300040A4B1B6853B1094BFD
S2144021601B681A180849914208DB1046054A106059
S21440217018467047054A034B1A60F0E74FF0FF30A9
S214402180704700BF700C4020FCFF45206830402060
S2144021904FF0FF3070474FF400534B6000207047BD
S2144021A0012070470020704700F1080343604FF05D
S2144021B0FF328260C36003610023036070470023E0
S2144021C00361704743684B609A688A609A685160BA
S2144021D099600861036801330360704730B40D6846
S2144021E0B5F1FF3F02D000F1080202E0026904E0C8
S2144021F01A4653681C68A542FAD253684B609960E9
S2144022008A605160086103680133036030BC7047E0
S21440221003694268816891608268416851605A6883
S214402220904205D000220261186801381860704755
S21440223082685A60F6E700000D4B1B68B3F1FF3F1B
S2144022400AD04FF0800372B683F31188BFF36F8FC6
S214402250BFF34F8F62B6FEE74FF0800372B683F34C
S2144022601188BFF36F8FBFF34F8F62B6FEE700BF94
S2144022702000402006480068006880F3088862B660
S21440228061B6BFF34F8FBFF36F8F00DF00BF000014
S21440229008ED00E0DFF80C00016841F470010160D1
S2144022A07047000088ED00E04FF0807340F8043C33
S2144022B040F8081C054B40F80C3C40F8202C6FF0CA
S2144022C0020340F8243C4438704700BF392240009F
S2144022D0064B19680868B0E8F04F80F30988BFF3EA
S2144022E06F8F4FF0000080F3118870477C0C4020C1
S2144022F0704700BF4FF0800372B683F31188BFF378
S2144023006F8FBFF34F8F62B60B4A1368013313606B
S214402310012B0FD1094B1B6813F0FF0F0AD04FF06B
S214402320800372B683F31188BFF36F8FBFF34F8F6E
S21440233062B6FEE7704700BF2000402004ED00E094
S2144023400A4B1B6853B94FF0800372B683F311886B
S214402350BFF36F8FBFF34F8F62B6FEE7013B034A72
S21440236013600BB983F31188704700BF20004020EC
S214402370EFF30980BFF36F8F154B1A681EF0100FEE
S21440238008BF20ED108A20E9F04F10604DF8043D5C
S2144023904FF0800072B680F31188BFF34F8FBFF3C3
S2144023A06F8F62B601F090F84FF0000080F311880E
S2144023B008BC19680868B0E8F04F1EF0100F08BF58
S2144023C0B0EC108A80F30988BFF36F8F704700BF68
S2144023D07C0C4020704700BF08B5EFF311834FF0E8
S2144023E0800272B682F31188BFF36F8FBFF34F8FB0
S2144023F062B6054B984718B14FF08052034B1A60AF
S214402400002383F3118808BD3531400004ED00E019
S214402410034A044B1A600722043B1A60704700BF09
S214402420BF27090014E000E000B583B0254B1A78BA
S214402430D2B20192FF221A701B78DBB28DF80330BD
S2144024409DF8033003F080031F4A137007221F4B8A
S2144024501A609DF8033013F0800F10D0062200E07B
S2144024600A469DF803305B00DBB28DF803309DF8DA
S2144024700330511E13F0800FF2D1144B1A60134AEA
S21440248013681B0203F4E0631360019BDBB20D4A42
S21440249013700F4B1A6842F460021A601A6842F0D2
S2144024A060421A600B4B984700220B4B1A600B4B4E
S2144024B098470B4A136843F040431360094B9847CC
S2144024C0094B984700E400E0740C4020780C40200C
S2144024D020ED00E0112440002000402095224000DE
S2144024E034EF00E07522400039224000EFF30583C8
S2144024F00F2B11D9124A9B5CDBB2124A12789A42D1
S2144025000AD94FF0800372B683F31188BFF36F8FFA
S214402510BFF34F8F62B6FEE70B4B1B6803F4E063D6
S2144025200A4A126893420AD94FF0800372B683F380
S2144025301188BFF36F8FBFF34F8F62B6FEE77047C9
S214402540F0E300E0740C40200CED00E0780C4020F6
S21440255010B50446064B98472046064B9847044617
S214402560054B98470CB1204610BD044B9847FAE7F8
S21440257019314000A96E400081324000E3404000DF
S21440258048B110B50446044B98472046034B98473D
S214402590034B984710BD704719314000B96E400054
S2144025A08132400038B504461546026C5AB9036875
S2144025B0002B2ED140681B4B984700236360A36BCB
S2144025C00133A36338BD6DB98068174B9847A3683D
S2144025D0226C1344A360626893421CD32368A360B2
S2144025E00020ECE7C068104B9847236C5B42E268DB
S2144025F01A44E26021688A4202D262681344E36069
S214402600022D0AD1A36B53B1A36B013BA3630020F9
S214402610D5E70020D3E70020D1E70020CFE7002011
S214402620CDE700BFC93840002974400030B583B0BC
S2144026300190446D74B1A26BE36B9A4215D34FF090
S214402640800372B683F31188BFF36F8FBFF34F8F4B
S21440265062B6FEE74FF0800372B683F31188BFF38D
S2144026606F8FBFF34F8F62B6FEE7A26B934203D8DD
S2144026700025284603B030BD0A4601A920460B4B2C
S21440268098470546A36CB3F1FF3F0AD1636A002B17
S214402690EFD004F12400064B9847002818BF0125C8
S2144026A0E7E7A36C0133A364E3E700BFA52540003A
S2144026B09D364000026C72B110B50346C46814449F
S2144026C0C4604068844201D31868D8600846D96818
S2144026D0014B984710BD704729744000F8B5044632
S2144026E0224B9847A36C002B1BDD214D214F224ED9
S2144026F00BE0636AABB104F12400B04778B9A36C31
S214402700013BA364A36C002B0BDD636D002BF0D064
S21440271000212046A8470128F1D1B847EFE7B8473F
S214402720EDE74FF0FF33A364144B98470F4B9847A1
S214402730636C002B14DD236993B104F110060E4D33
S2144027400C4F07E0636C013B6364636C002B07DD52
S21440275023692BB13046A8470028F3D0B847F1E7A5
S2144027604FF0FF336364054B9847F8BDF5224000B1
S2144027702D264000F93740009D364000412340005A
S21440278038B508B304460D461D4B98472268216C61
S214402790E36B03FB01F3D01860600020A063A260E7
S2144027A05B1A1344E3604FF0FF336364A364FDB9E0
S2144027B023692BB104F11000124B984701280ED024
S2144027C0114B9847012038BD4FF0800372B683F313
S2144027D01188BFF36F8FBFF34F8F62B6FEE74FF09F
S2144027E080520A4B1A60BFF34F8FBFF36F8FE7E7F5
S2144027F004F11000064DA84704F12400A847DFE77F
S214402800F52240009D3640004123400004ED00E0A4
S214402810A9214000F8B550B94FF0800372B683F353
S2144028201188BFF36F8FBFF34F8F62B6FEE7064641
S21440283017460D4689B101FB00F05930124B9847B8
S2144028400446E8B94FF0800372B683F31188BFF3AD
S2144028506F8FBFF34F8F62B6FEE758200A4B9847FC
S21440286004460028EED02060E66325640121204619
S214402870064B984784F85070002363652046F8BDA1
S21440288000F158030360EFE75125400081274000E0
S2144028902DE9F04F85B00192B8B1044601B3022B42
S2144028A02CD01D468846664B9847002834D1019B5D
S2144028B0002B38D04FF0800372B683F31188BFF3F5
S2144028C06F8FBFF34F8F62B6FEE74FF0800372B64E
S2144028D083F31188BFF36F8FBFF34F8F62B6FEE767
S2144028E0026C002ADBD04FF0800372B683F3118867
S2144028F0BFF36F8FBFF34F8F62B6FEE7E26B012ADE
S214402900CFD04FF0800372B683F31188BFF36F8F3A
S214402910BFF34F8F62B6FEE700274A4EDFF850A15E
S214402920DFF82C9142E00027F7E72A46414620464A
S214402930454B9847636D9BB129462046434B984785
S214402940012807D14FF08052414B1A60BFF34F8F9A
S214402950BFF36F8F3F4B9847012005B0BDE8F08F1F
S214402960636A73B104F124003B4B98470128F1D1C8
S2144029704FF08052364B1A60BFF34F8FBFF36F8FC6
S214402980E8E70028E6D04FF08052314B1A60BFF39C
S2144029904F8FBFF36F8FDDE72E4B98470020DCE765
S2144029A020462E4B98472E4B98470127B047A26BA0
S2144029B0E36B9A42B9D3022DB7D0019B002BEBD0E4
S2144029C00FB902A8D047234B9847264B9847B047A5
S2144029D0636CB3F1FF3F01D100236364A36CB3F192
S2144029E0FF3F01D10023A3641A4B984701A902A8D0
S2144029F01D4B9847E0B9B047D4F838B0E76B154B55
S214402A009847BB45CCD1019904F11000174B984725
S214402A102046124B9847124B98470028C5D14FF096
S214402A208053C9F80030BFF34F8FBFF36F8FBCE7BA
S214402A3020460A4B98470A4B984700208DE700BF30
S214402A4005384000F5224000A52540002D264000D0
S214402A5004ED00E0412340009D364000DD26400066
S214402A6081324000193140006537400099354000BA
S214402A7035374000002836D02DE9F041044600297D
S214402A803CD0022B48D01E4615468846354B9847C4
S214402A90EFF311874FF0800372B683F31188BFF3CC
S214402AA06F8FBFF34F8F62B6A26BE36B9A4201D330
S214402AB0022E4FD13246414620462B4B9847A36CB8
S214402AC0B3F1FF3F41D1636D002B33D031462046F2
S214402AD0264B9847002D3FD001283DD1286087F3EC
S214402AE01188BDE8F0814FF0800372B683F31188F9
S214402AF0BFF36F8FBFF34F8F62B6FEE7006C0028C0
S214402B00BFD04FF0800372B683F31188BFF36F8F48
S214402B10BFF34F8F62B6FEE7E06B0128B3D04FF0AD
S214402B20800372B683F31188BFF36F8FBFF34F8F66
S214402B3062B6FEE7636A8BB104F124000C4B9847FB
S214402B4075B168B101202860C9E7A36C0133A3645E
S214402B500120C4E70020C2E70120C0E70120BEE70D
S214402B600120BCE7ED244000A52540002D2640006E
S214402B709D3640002DE9F04784B0019298B1044656
S214402B80E1B198460F46614B984728BB019B53B32B
S214402B904FF0800372B683F31188BFF36F8FBFF395
S214402BA04F8F62B6FEE74FF0800372B683F311880C
S214402BB0BFF36F8FBFF34F8F62B6FEE7026C002AFB
S214402BC0DFD04FF0800372B683F31188BFF36F8F68
S214402BD0BFF34F8F62B6FEE700264D4DDFF860A18B
S214402BE0DFF83C914BE00026F7E7E568394620469B
S214402BF0484B9847B8F1000F1DD1A36B013BA36328
S214402C00236813B9444B9847606023696BB104F15D
S214402C101000424B9847012807D14FF08052404B56
S214402C201A60BFF34F8FBFF36F8F3E4B984701201C
S214402C3004B0BDE8F087E560636A002BF5D004F188
S214402C402400364B98470028EFD04FF08052344B44
S214402C501A60BFF34F8FBFF36F8FE6E7314B98474D
S214402C600020E5E7A84760682F4B98472D4B9847CC
S214402C7030E020462D4B98472D4B98470126A847D5
S214402C80A36B002BB1D1019B002BE7D00EB902A855
S214402C90D047244B9847274B9847A847636CB3F1D7
S214402CA0FF3F01D100236364A36CB3F1FF3F01D122
S214402CB00023A3641B4B984701A902A81E4B9847C4
S214402CC0E8B9A847A66B174B9847002ED1D1236882
S214402CD0002BC7D0019904F12400184B9847204692
S214402CE0124B9847124B98470028C7D14FF0805355
S214402CF0C9F80030BFF34F8FBFF36F8FBEE7204653
S214402D000A4B98470A4B9847002091E70538400001
S214402D10F5224000B5264000853940009D364000EB
S214402D2004ED00E04123400025384000DD26400009
S214402D3081324000193140006537400099354000E7
S214402D403537400010B40B4B1B6853B10123094C78
S214402D5054F8332032B10133082BF9D15DF8044BD7
S214402D6070470023034A42F8331002EBC30358600F
S214402D70F4E700BFF40D402070B504460D461646F5
S214402D800F4B9847636CB3F1FF3F0BD0A36CB3F186
S214402D90FF3F0AD00B4B9847A36B4BB120460A4BDC
S214402DA0984770BD00236364F0E70023A364F1E70F
S214402DB03246294604F12400044B9847EEE700BF0C
S214402DC0F522400041234000DD2640001D364000ED
S214402DD0084B1B681B683BB1064B1B68DB68DB680F
S214402DE05A68054B1A6070474FF0FF32024B1A6024
S214402DF0704700BF800C40202C0D402010B50F4B74
S214402E001B6858600E4B1B6898420ED304460D4B09
S214402E1018680A4B196804310B4B98470B4B1B68D4
S214402E209C4201D2094B1C6010BD094B1868034BED
S214402E3019680431044B984710BD00BF7C0C4020F5
S214402E40740D4020800C4020DD2140002C0D402099
S214402E50840C40202DE9F04F83B00C9DDDF834A063
S214402E600E9E60B1042D15D94FF0800372B683F3E1
S214402E701188BFF36F8FBFF34F8F62B6FEE74FF0F8
S214402E80800372B683F31188BFF36F8FBFF34F8F03
S214402E9062B6FEE70190984691460F4636B99000D6
S214402EA0624B98470646002800F09E8058205F4BAD
S214402EB098470446002800F0948006634FEA89024B
S214402EC0A52130465A4B98476FF040464E44236BF8
S214402ED003EB860323F007063B7884F834303B78D0
S214402EE0002B40F08480002784F83D70E562A5649E
S214402EF0E76404F104094846DFF884B1D84704F192
S214402F001800D8472461C5F10503A36164622765AC
S214402F1084F85470424601993046464B98472060A4
S214402F20BAF1000F01D0CAF80040434B9847434AD5
S214402F30136801331360424B1B68002B66D1404B2D
S214402F401C601368012B21D13E4F38463E4EB04799
S214402F5007F11400B04707F12800B04707F13C00DE
S214402F60B04707F15000B047DFF818814046B047F9
S214402F70364F3846B0473648B0473648B0473648AA
S214402F80B047364BC3F80080354B1F60354A136850
S214402F90013313602364E06A334A11680123834097
S214402FA00B43136000EB80004946264B03EB800042
S214402FB02E4B98472E4B98472E4B1B68002B31D0F4
S214402FC01F4B1B68DB6A9D422ED94FF080522A4B1E
S214402FD01A60BFF34F8FBFF36F8F012003B0BDE879
S214402FE0F08F3046254B98474FF0FF30F6E73B468C
S214402FF004F134020937597802F8011F13F8011F0B
S21440300000293FF470AFBB42F5D16CE7194B1B6803
S214403010002BBBD10A4B1B68DB6A9D42B6D3084BDC
S2144030201C60B3E70120D9E70120D7E751254000CF
S2144030305D754000A9224000F5224000EC0C40207F
S2144030407C0C4020880C4020A9214000180D4020D0
S214403050340D4020600D40204C0D4020800C402018
S214403060840C4020F80C4020000D4020C521400034
S21440307041234000480D402004ED00E081254000FB
S214403080BF214000040D402010B584B000230393B8
S2144030900293019300934FF4006217491748184C67
S2144030A0A04701280BD020BB4FF0800372B683F3B5
S2144030B01188BFF36F8FBFF34F8F62B6FEE7114B99
S2144030C098470128EFD14FF0800372B683F31188FA
S2144030D0BFF36F8FBFF34F8F62B64FF0FF320A4B8E
S2144030E01A600122094B1A600022094B1A60094BEC
S2144030F0984704B010BD00BF84C040003134400043
S214403100552E4000713A40002C0D4020480D40207E
S214403110740D402029244000024A1368013313608E
S214403120704700BFF40C4020014B1868704700BF42
S214403130740D40202DE9F047424B1B68002B78D198
S214403140414B1A6801321A601E68D6B93F4B1B685D
S2144031501B6853B14FF0800372B683F31188BFF3F8
S2144031606F8FBFF34F8F62B6FEE7384A1168384B11
S214403170186810601960374A136801331360364B7D
S2144031809847364B1B689E4218D20024344B1B6827
S214403190DB6A03EB8303334A52F82330022B28BF03
S2144031A00124314B1B680BB9304B9847304B1B689A
S2144031B0002B0CBF20460120BDE8F0870024DFF836
S2144031C08C90DFF8B8802B4F1FE04FF0FF32234B38
S2144031D01A60DBE7214A1360D8E705F11800C047BC
S2144031E0E86A3A680123834013433B6000EB800063
S2144031F051461C4B03EB80001F4B9847184B1B68EF
S214403200EA6ADB6A9A4228BF0124D9F800301B6874
S214403210002BDAD0D9F80030DB68DD686B689E4258
S214403220D8D305F1040A5046C047AB6A002BD4D128
S214403230D6E70D4A1368013313600C4B98470024B9
S214403240B4E700BFF40C4020740D4020800C4020B2
S214403250840C4020300D4020D12D40002C0D4020C5
S2144032607C0C4020880C4020F00C4020E140400080
S214403270780D4020000D4020C5214000112240001E
S2144032802DE9F843384B1B6853B94FF0800372B6AC
S21440329083F31188BFF36F8FBFF34F8F62B6FEE79D
S2144032A0324B9847304B1A68013A1A601B68002B1D
S2144032B055D12F4B1B68002B32D100242D4B9847FD
S2144032C02046BDE8F883FB68DC6804F11800B04788
S2144032D004F104084046B047E06A2A680123834068
S2144032E013432B6000EB8000414609EB8000224BE5
S2144032F09847224B1B68E26ADB6A9A420CD23B68CC
S214403300002BE0D11E4B1B68DBB11D4B1B68C3B1C5
S2144033101C4E1D4D1A4C0EE001221B4B1A60EEE768
S2144033201A4F1B4E1B4DDFF87490E8E72368013BAD
S214403330236023682BB1B0470028F7D001232B60C9
S214403340F4E7114B1B68012B0BD14FF08052124B08
S2144033501A60BFF34F8FBFF36F8F0124AEE7002490
S214403360ACE70024AAE700BFF40C4020F52240005A
S214403370EC0C402041234000C52140007C0C4020FE
S214403380F00C402035314000780D4020340D402070
S21440339011224000000D402004ED00E0880C402043
S2144033A010B5002829D00446184B1B6853B14FF07F
S2144033B0800372B683F31188BFF36F8FBFF34F8FCE
S2144033C062B6FEE7124B9847124B1B681C44124BE2
S2144033D018680430114B984748B90F4B1A68104983
S2144033E00B68D06A0122824023EA02030B60204623
S2144033F00C4B98470C4B984738B94FF080520B4BC4
S2144034001A60BFF34F8FBFF36F8F10BDF40C402090
S21440341019314000740D40207C0C402011224000A1
S214403420000D4020FD2D40008132400004ED00E0BC
S21440343080B5DFF88880194EDFF884902AE0184B74
S2144034401B68012B1ED82B68002BF8D0C047346869
S214403450B847002CF7D0134B9847F368DC68201D1C
S214403460114B9847114A1368013B13602B68013B88
S2144034702B600F4B9847206BDFF848A0D04720467C
S214403480D047E0E74FF08053C9F80030BFF34F8F86
S214403490BFF36F8F074D084FD5E700BF600D402044
S2144034A0880C4020F522400011224000EC0C4020C1
S2144034B041234000FC0C402081324000193140003E
S2144034C004ED00E0812540002D4B1B68002B2CD1DD
S2144034D010B500222B4B1A602B4B1B681B6B1A68CF
S2144034E0B2F1A53F03D15A68B2F1A53F21D0264B91
S2144034F0186819683431254B9847254B1B68B3FA32
S21440350083F3DBB2C3F11F0303EB8301214A52F876
S2144035102120BAB94FF0800372B683F31188BFF307
S2144035206F8FBFF34F8F62B6FEE70122154B1A60CE
S21440353070479A68B2F1A53FD9D1DB68B3F1A53F91
S214403540D5D1DAE7134A9900C81802EB80004468E0
S21440355064684460194402460832944209D003EB3A
S21440356083030C4A02EB83035B68DA68064B1A60F7
S21440357010BD6068074A02EB81025060EFE700BF6B
S214403580F40C4020780D40207C0C4020C940400080
S214403590000D4020880C402038B5E0B10C46174D51
S2144035A029681831164B984728680430154B9847B9
S2144035B040B92A6814490B68D06A0122824023EA3F
S2144035C002030B60B4F1FF3F10D0104B1868204444
S2144035D00F4B984738BD4FF0800372B683F311887F
S2144035E0BFF36F8FBFF34F8F62B6FEE7034B19688A
S2144035F004310848084B984738BD00BF7C0C402033
S214403600DD21400011224000000D4020740D402076
S214403610FD2D40004C0D4020C5214000E8B170B55E
S21440362015460C46164E31681831164B984730688A
S2144036300430154B984740B9326814490B68D06A35
S2144036400122824023EA02030B60012D10D0104B6A
S214403650186820440F4B984770BD4FF0800372B6F1
S21440366083F31188BFF36F8FBFF34F8F62B6FEE7C9
S214403670034B196804310848024B984770BD00BF99
S2144036807C0C4020C521400011224000000D402007
S214403690740D4020FD2D40004C0D402038B5C368C9
S2144036A0DC6824B304F1180528461A4B98471A4B91
S2144036B01B683BBB251D2846164B9847E06A174AB1
S2144036C01168012383400B43136000EB80002946BA
S2144036D0134B03EB8000134B9847134B1B68E26A6F
S2144036E0DB6A9A4213D90120104B186038BD4FF060
S2144036F0800372B683F31188BFF36F8FBFF34F8F8B
S21440370062B6FEE729460A48064B9847E5E700209A
S21440371038BD00BF11224000F40C4020000D402070
S214403720880C4020C52140007C0C4020780D40206D
S214403730340D402030B1094A12680260084A1268C7
S214403740426070474FF0800372B683F31188BFF330
S2144037506F8FBFF34F8F62B6FEE700BF300D40203D
S214403760740D402038B5C0B1044609B30D461D4B14
S21440377098471D4B1A682B68B3F1FF3F2ED01B4964
S21440378009682068884202D061688A4228D2616807
S214403790501A834217D801241CE04FF0800372B6BB
S2144037A083F31188BFF36F8FBFF34F8F62B6FEE788
S2144037B04FF0800372B683F31188BFF36F8FBFF369
S2144037C04F8F62B6FEE79B1A0B442B602046084B91
S2144037D098470024074B9847204638BD0024F9E711
S2144037E00124F7E7F5224000740D4020300D4020BC
S2144037F035374000412340000122014B1A60704794
S214403800780D4020054B1B6833B1054B1B68002BD9
S2144038100CBF02200020704701207047480D402012
S214403820F40C4020002844D038B50446C26A2149EA
S2144038300968C96A8A4214D28169002905DB1D4994
S2144038400968C96AC1F10501816102EB82021A4921
S21440385001EB82026169914204D0164A1268D26A2C
S214403860E26238BD251D2846144B984770B9E36A76
S21440387003EB8301104A52F821203AB910480268F7
S214403880012101FA03F322EA03030360094B1B6894
S214403890D86AE0620A4A1168012383400B431360EA
S2144038A000EB80002946044B03EB8000054B98470D
S2144038B038BD70477C0C4020880C402011224000C8
S2144038C0000D4020C521400000284DD038B50446A4
S2144038D0274A126890420AD04FF0800372B683F3AC
S2144038E01188BFF36F8FBFF34F8F62B6FEE7C26C8F
S2144038F052B94FF0800372B683F31188BFF36F8FCF
S214403900BFF34F8F62B6FEE7013AC264C06AA16C4D
S21440391088422BD052BB251D2846164B984768B97F
S214403920E16A01EB8102144B53F8223033B9134855
S214403930036801228A4023EA02030360A06CE06227
S214403940C0F10503A3610D4A1168012404FA00F38F
S2144039500B43136000EB80002946074B03EB8000C7
S214403960074B9847204638BD00207047002038BD9A
S2144039707C0C402011224000880C4020000D402046
S214403980C5214000054B1B6823B1044B1A68D36C15
S2144039900133D364014B1868704700BF7C0C40204D
S2144039A008B54160006191420CD8D21A83699A42A8
S2144039B001D3012008BD011D094B1868094B9847E3
S2144039C0002008BD9A4203D2994201D3012008BD87
S2144039D0011D054B1868034B9847002008BD00BFE3
S2144039E0800D4020DD2140007C0D402070B5154BF9
S2144039F09847154B1B6813B1144B984770BD144D30
S214403A002846144EB047144C2046B047134B1D6012
S214403A10134B1C60002210210520124B98470A4B7E
S214403A20186018B11049114B9847E5E74FF08003EE
S214403A3072B683F31188BFF36F8FBFF34F8F62B6B2
S214403A40FEE700BFF5224000B00D40204123400075
S214403A50840D4020A9214000980D40207C0D402038
S214403A60800D4020152840008CC04000452D400069
S214403A7010B584B00F4B98470F4B1B6873B10023AB
S214403A80039302930193042200924FF480520B4911
S214403A900B480C4CA04708B104B010BD4FF0800353
S214403AA072B683F31188BFF36F8FBFF34F8F62B642
S214403AB0FEE700BFED394000B00D402094C0400006
S214403AC0F13B4000552E4000D8B130B585B0154684
S214403AD00446154A106820B31A4600910195029490
S214403AE0052919DC114B984702284FF000030CBFFC
S214403AF0089A1A4669460C4800680D4CA04705B01F
S214403B0030BD4FF0800372B683F31188BFF36F8FDA
S214403B10BFF34F8F62B6FEE700236946054CA047C9
S214403B20EDE70020EBE700BFB00D40200538400031
S214403B3091284000752A40002DE9F04782B0804623
S214403B40244B98470746244B1B6898421BD30023B8
S214403B50C8F80030204B1F60384602B0BDE8F087FA
S214403B60002100910B46524620461C4CA04760B9A7
S214403B704FF0800372B683F31188BFF36F8FBFF3A5
S214403B804F8F62B6FEE7164D164E2B681A68C2B1C6
S214403B90DB68D3F800A0DC6804F104094846B04767
S214403BA0636A20469847E369012BEED1A3695344E4
S214403BB09A45D5D263602461494628680A4B98479F
S214403BC0E3E70A4A10680649086013600123C8F80C
S214403BD00030BFE729314000AC0D4020C93A4000D4
S214403BE07C0D402011224000DD214000800D402009
S214403BF02DE9F04788B0754E754FDFF8FC91DFF839
S214403C00FC8133681A68002A00F0CE80DB681C68A6
S214403C10B84704A86F4B98470546049B002B44D1F1
S214403C20A04212D20022611B6B4B18686B4B984720
S214403C306B4B984700283AD14FF08053C9F8003074
S214403C40BFF34F8FBFF36F8F31E0654B98473368B4
S214403C50DB68D3F80CA00AF10400C047DAF81C3041
S214403C60012B04D0DAF82430504698471FE0DAF8A3
S214403C70181023462A46214450465A4DA847012844
S214403C80F0D1002100910B4622465046564CA047A4
S214403C900028E7D14FF0800372B683F31188BFF354
S214403CA06F8FBFF34F8F62B6FEE74D4B98474A4D36
S214403CB04E4C06E007990698059B9847049B002BB8
S214403CC009DA00231A4604A92868A047002898D095
S214403CD0049B002BEEDBDDF818A0DAF8143013B1A5
S214403CE00AF10400C04703A83A4B9847049B092BA7
S214403CF0E7D801A252F823F0213D4000213D400084
S214403D00213D4000C33C4000753D4000A13D400081
S214403D10213D4000213D4000C33C4000753D4000F1
S214403D20059CDAF8181023460246214450462D4C8E
S214403D30A0470128BCD1DAF8243050469847DAF834
S214403D401C30012BB4D1DAF81820002100910B4624
S214403D50059802445046244CA0470028A8D14FF06E
S214403D60800372B683F31188BFF36F8FBFF34F8F14
S214403D7062B6FEE70599CAF8181031B10346024606
S214403D8001445046174CA04792E74FF0800372B666
S214403D9083F31188BFF36F8FBFF34F8F62B6FEE792
S214403DA05046134B984783E7B84704A8094B9847B3
S214403DB00546049B002B7FF478AF0E4B1B681A68B1
S214403DC0B2FA82F2520900242DE700BF7C0D402053
S214403DD019314000393B4000B00D4020792D40005D
S214403DE081324000A1394000C93A4000752B40005E
S214403DF081254000800D402004ED00E01122400067
S214403E007047000080B582B0174D184F184E03E03B
S214403E1001213846174B9847174C00231A460DF198
S214403E2007012868A0470028F7D001213846134CE0
S214403E30A0474FF080413046A04704211048A04795
S214403E409DF80730022BE3D0012B07D0002BE3D19F
S214403E504FF080413046074B9847DDE7042108483D
S214403E60044B9847D8E700BF380E4020000E0E405F
S214403E7000120E4063194000752B40005F19400049
S214403E8000100E402DE9F047104F114EDFF84C90D1
S214403E90002423464FF47A7221463868B0470028FB
S214403EA0F7D005244FF48078DFF834A041464846E2
S214403EB0D0473220074DA84741464846064B9847CC
S214403EC03220A847013CF1D1E2E700BF340E402043
S214403ED0752B4000A13340005F19400000120E4091
S214403EE06319400008B5074B9847074D2B460022FC
S214403EF011460648064CA0472B461422002105488A
S214403F00A047FEE7911340000C00402040C240000E
S214403F10F912400050C24000F0B583B005460C464A
S214403F20002301932A4B984213D02A4B984218D02C
S214403F30294B98421DD0294B9D4222D0284B9D426A
S214403F4027D0284B9D422ED0274B9D4235D003B0DC
S214403F50F0BD1F46254E21463846B0470028FAD1C8
S214403F60E9E71F46214E21463846B0470028FAD199
S214403F70E4E71F461D4E21463846B0470028FAD192
S214403F80DFE71F46194E21463846B0470028FAD18B
S214403F90DAE71E46164D01A93046A8470028FAD152
S214403FA0019B2370D3E71E46114D01A93046A84712
S214403FB00028FAD1019B2370C9E71E460C4D01A983
S214403FC03046A8470028FAD1019B2370BFE700BFC0
S214403FD000080E40000A0E40001A0E40001C0E401C
S214403FE0004002400080024000C00240D31D400016
S214403FF0DF1E400070B50C462A4B984213D02A4B21
S214404000984219D0294B98421FD0294B984225D028
S214404010284B98422BD0284B984231D0274B984279
S21440402037D0002070BD1E46254D21463046A84755
S2144040300028FAD1012070BD1E46214D214630464B
S214404040A8470028FAD1012070BD1E461C4D2146C7
S2144040503046A8470028FAD1012070BD1E46184DAC
S21440406021463046A8470028FAD1012070BD1E469A
S214404070144D21463046A8470028FAD1012070BD8D
S2144040801E46104D21463046A8470028FAD101204A
S21440409070BD1E460B4D21463046A8470028FAD133
S2144040A0012070BD00080E40000A0E40001A0E4067
S2144040B0001C0E40004002400080024000C002400B
S2144040C0C11D4000C91E400008B50A4601460248C8
S2144040D0024B9847FEE700BF54C2400011764000AE
S2144040E070474FF0800372B683F31188BFF36F8F2B
S2144040F0BFF34F8F62B6FEE730B585B029200E4C31
S214404100A0470E4B019349F6404302931020A04728
S2144041100B4D4FF080524FF0C0512846094CA047F7
S2144041204FF000624FF0C0512846A04701A906480C
S214404130064B984705B030BD6D1D400000A3E11109
S21440414000140E406719400000000640A9034000D6
S21440415000B587B08DF814008DF804100121029147
S2144041600392049301A90348034B984740B207B013
S2144041705DF804FB00000640DD03400000B587B054
S2144041808DF814008DF804100121029103920493D7
S21440419001A90348034B984740B207B05DF804FBBB
S2144041A000000640890440002DE9F04D2DED0C8BB3
S2144041B0B4B05F4B984768215E485F4B9847C0B2A3
S2144041C0002842D05D485E4B984701232DAA7521B2
S2144041D068205C4CA04700283BD05B48584B98472B
S2144041E09DF8B430682B14BF58485948544B9847EC
S2144041F0012334AA02F8283D6B216820554CA0477D
S21440420070BB34AA002302F8283D01231C216820F5
S214404210504CA04740BB34AA002302F8283D012357
S2144042201B2168204B4CA04710BB0DA84A4B984713
S214404230012468250FF2E00BDBE900ABDFF848818C
S2144042409FED37BB9FED38ABD2E044483C4B984798
S214404250BBE79DF8B42075214148424B9847BFE7DD
S2144042604148374B9847CCE73F48354B9847D2E7CD
S2144042703D48334B9847D8E700231A4619463B48F3
S2144042800068C04761E117EE900A394B9847DFED6A
S21440429039DA07EE900A27EEADDA69EE097A29EEAA
S2144042A0299A28EE888A7CEE677A17EE901A79EE7D
S2144042B0087A17EE900A304B984708EE100A2F4EB1
S2144042C01CEE900AB047CDE9040168EE2D7A17EE51
S2144042D0900AB047CDE902011DEE100AB047CDE97D
S2144042E00001DDE9042326481E498847DFED257A8C
S2144042F0B4EEE7DAF1EE10FA70D4A6E1DFED217AFB
S214404300F4EEE7CAF1EE10FA02D58DF81B4068E0ED
S21440431003238DF81B3064E09A9999999999C93F7F
S21440432000000000008056C000000000008056409C
S214404330F9404000000006402905400068C14000A2
S214404340D57640005141400098C14000C4C140006D
S214404350E8C140007D4140006106400080C1400009
S214404360B0C140001176400004C24000340E4020E8
S214404370FD494000E02E65429D4A4000B161400044
S2144043801CC24000000070C29128400069EE097AC5
S21440439029EE299A28EE888A7CEE677A17EE901ADC
S2144043A079EE087A17EE900AAE4B984708EE100A58
S2144043B0AD4E1CEE900AB047CDE90401DFEDAB7A76
S2144043C068EE277A17EE900AB047CDE902018DEDE8
S2144043D000BBDDE90423A648A649884700238DF89C
S2144043E01B3000230A220DF11B01A3480068C0477A
S2144043F023460DF1A7023B212846A04EB047234650
S21440440029AA3C212846B04723460DF1A6023D2165
S2144044102846B04723460DF1A30240212846B04720
S21440442023460DF1A5023F212846B04723460DF10D
S214404430A20240212846B0479DF8A7209DF8A43008
S21440444043EA02231BB209EE103A9DF8A6209DF8D7
S214404450A33043EA02231BB208EE903A9DF8A5200B
S2144044609DF8A23043EA02231BB208EE103A2346D8
S2144044700DF1A10243212846B04723460DF19E0286
S21440448044212846B047234628AA45212846B04717
S21440449023460DF19D0248212846B04723460DF19C
S2144044A09F0247212846B047234627AA4821284648
S2144044B0B0479DF8A1709DF89E109DF8A0609DF8AD
S2144044C09D209DF89F009DF89C30B8EEC99ADFED80
S2144044D06C7A29EE279AF8EEE88A68EEA78AB8EE54
S2144044E0C88A28EE278A41EA072109B207EE901AC1
S2144044F0F8EEE77A9FED637AC7EE879A42EA06229D
S21440450012B207EE902AF8EEE77A87EE87CA43EAB9
S21440451000231BB207EE903AF8EEE77AC7EE87CA5A
S21440452029EE097A68EEA87A77EE277A28EE087A96
S21440453077EE877A17EE900A4B4B984752465B4683
S214404540514EB04700287FF497AECDED079A8DEDDB
S21440455008CACDED09CA8DED0A9ACDED0B8A8DEDD0
S2144045600C8A4A4B03930AAB93E807008DE8070092
S21440457007AB0ECB0DA8464EB0470DA930A8454B0D
S2144045809847DDED309ADDED318A9DED328A9DED1E
S214404590339A68EE087AB6EE00CA3CEE67CA68EE12
S2144045A0A86A29EEA87A69EE087A7CEE666A16EE64
S2144045B0901A77EE277A17EE900A2A4B9847DFED47
S2144045C02BCA07EE900A67EEACCA29EE887A69EEE7
S2144045D0287A77EE677A77EEA77ABFEE007AF4EE1F
S2144045E0C77AF1EE10FA7FF6D1AEB7EE007AF4EE67
S2144045F0C77AF1EE10FAFFF646AE69EE097A29EE72
S214404600299A28EE888A7CEE677A17EE901A79EE19
S214404610087A17EE900A134B984708EE100A124E87
S2144046201CEE900AB047CDE90401DFED107A68EE43
S214404630277A17EE900AB047CDE902018DED00AB20
S214404640DDE904230A480B498847DFED137AF4EE88
S214404650E7CAF1EE10FA7FF751AE02238DF81B3011
S214404660BFE600BF9D4A4000B1614000E02E654273
S2144046701CC2400011764000380E40205141400098
S21440468000008038000003433D674000CDCCCC3D61
S214404690A90D4000910640000000704280B58AB0E7
S2144046A06C4B98476C4B98476C4B4FF480621A6043
S2144046B0802283F80A236A4E09234FF400624FF0A3
S2144046C020513046674CA0473C224FF400613046AC
S2144046D0654B98474FF400613046644B9847644BAF
S2144046E0009350234FF400620A213046614CA047A5
S2144046F00A20614DA8470024009423460122114613
S21440470030465E4EB0470C20A8475D4F0094234687
S21440471001224FF080413846B0470B20A84700940E
S2144047202346012204215748B0470C20A84700944E
S214404730234601224FF480713846B047524E534BC1
S2144047401E60534A534B1A60534A544B1A604FF4F8
S214404750E1330493C02305934FF400630693079414
S21440476008940E20A8474E4A04A930464D4B984719
S21440477030464D4B984730464C4B98474C4E3368E6
S214404780214698684B4DA847336821465868A84745
S214404790336821469868A847032221460120464DA3
S2144047A0A847464B1860224601212020A847444B84
S2144047B01860002846D0414B1B68002B46D000238B
S2144047C003930293019300934FF4C0623D493E48E1
S2144047D03E4CA047012802D03D483E4B9847002318
S2144047E003930293019300934FF4C0623A493B48C7
S2144047F0364CA047012802D03948364B984700230C
S21440480003930293019300934FF4C06235493648B0
S2144048102E4CA047012802D034482E4B9847002300
S21440482003930293019300934FF4C062304931489A
S214404830264CA047012802D02F48264B98472F4B9E
S2144048409847FEE72E48234B9847B4E72D48214B20
S2144048509847B4E7B1164000AD17400000E100E0CD
S214404860000E0E40591A4000451940001B1B4000E0
S214404870013E4000791B40006D1D40002F1A40004D
S21440488000120E4000100E4000800240F00D402006
S214404890F53F4000EC0D4020193F4000E80D402019
S2144048A080D1F008691E4000BD1E4000C31E400077
S2144048B0280040200977400015284000340E40204C
S2144048C0380E4020D0C04000E53E4000552E400007
S2144048D0D8C04000D5764000F4C04000A941400012
S2144048E0F8C0400014C14000853E40001CC1400056
S2144048F038C14000053E400044C140008930400079
S2144049009CC04000B4C0400000B51C4A20F00043A4
S214404910934283B018DDB3F1FF4F05DB014601F04B
S21440492089FF03B05DF804FB694600F095FA00F095
S2144049300302012A15D0022A0CD0CAB101220199DD
S214404940009801F095F8ECE7002100F047FC03B032
S2144049505DF804FB0199009800F040FC00F100402F
S214404960DFE70199009801F083F800F10040D8E7AE
S2144049700199009800F032FCD3E700BFD80F493FBA
S21440498000B51D4A20F00043934283B019DDB3F1D1
S214404990FF4F05DB014601F04DFF03B05DF804FB19
S2144049A0694600F059FA00F00300012818D00228A2
S2144049B00ED0D0B10199009800F010FC00F10040F4
S2144049C0EBE70022002101F053F803B05DF804FB4A
S2144049D001220199009801F04BF800F10040DCE715
S2144049E00199009800F0FAFBD7E701220199009858
S2144049F001F03EF8D1E700BFD80F493FF0B5244E4E
S214404A008BB0044600F04CF896F90030013305466A
S214404A102FD02146204602F0DDF9074648BB204607
S214404A2001F0BAF94FF07E5102F0CAF908B3194BBB
S214404A300897012220468DE80C0001F0B9FB02469B
S214404A400B461548CDE90423CDE9022301F088F84A
S214404A5096F90030022BCDE906010DD0684601F0EC
S214404A607DF848B1089B73B9DDE9060101F08EFE7A
S214404A70054628460BB0F0BD02F0E8F92123036056
S214404A80089B002BF0D002F0E1F9089B0360EBE7AF
S214404A90240040206CC24000ACC1400000F04AB93F
S214404AA02DE9F84320F00045B5F17E5F044600F05E
S214404AB0C68012DCB5F17C5F064616DAB5F1485F73
S214404AC080F2CB808B4901F0B7FE4FF07E5102F06A
S214404AD077F950B12046BDE8F883014601F0AAFEBA
S214404AE0014602F065F8BDE8F883204601F054F927
S214404AF001464FF07E5001F09DFE4FF07C5101F094
S214404B00A3FF7D49044601F09FFF7C4901F094FED7
S214404B10214601F099FF7A4901F08CFE214601F0CA
S214404B2093FF784901F088FE214601F08DFF7649D3
S214404B3001F080FE214601F087FF744901F07CFEBB
S214404B40214601F081FF72498046204601F07CFFF5
S214404B50704901F06FFE214601F076FF6E4901F084
S214404B606BFE214601F070FF6C4901F063FE214662
S214404B7001F06AFF4FF07E5101F05EFE814620460E
S214404B8000F0D8FA664B9D4207464946404643DC0D
S214404B9002F00EF839468046384601F04DFE014692
S214404BA0404601F051FF27F47F6525F00F0580460B
S214404BB02946284601F048FF0146204601F03AFEC5
S214404BC039460446284601F037FE0146204601F0A5
S214404BD0EFFF014601F030FE0146524801F02AFE42
S214404BE00146404601F026FE29460446284601F086
S214404BF023FE01464C4801F01DFE0146204601F0CA
S214404C0019FE0146484801F015FE002E3FF763AFF7
S214404C1000F10040BDE8F88301F0CAFF394601F0D4
S214404C2013FF394601F008FE014601F005FE3F49F4
S214404C3001F002FE01463E4801F0FCFDE5E73C4936
S214404C4001F002FF37490546204601F0FDFE0146C9
S214404C50284601F0F1FDBDE8F883014601F0F4FE78
S214404C602549054601F0F0FE244901F0E5FD2946B8
S214404C7001F0EAFE224901F0DDFD294601F0E4FE9E
S214404C80204901F0D9FD294601F0DEFE1E4901F01B
S214404C90D1FD294601F0D8FE1C4901F0CDFD29463C
S214404CA001F0D2FE1A490646284601F0CDFE1949C3
S214404CB001F0C0FD294601F0C7FE174901F0BCFDD2
S214404CC0294601F0C1FE154901F0B4FD294601F020
S214404CD0BBFE4FF07E5101F0AFFD0146304601F07D
S214404CE067FF214601F0B0FE214601F0A5FDBDE874
S214404CF0F88300BFCAF2497108EF1138047F4F3A73
S214404D004611243DA80A4E3E90B0A63EABAA2A3E87
S214404D102EC69D3D6133303F2D57014039D1194055
S214404D209999793F2EBD3BB3DB0F493F2EBD3B33B0
S214404D30DB0FC93FF8B50C4621F00041B1F1FF4FFB
S214404D40034614DC20F00046B6F1FF4F07460EDC63
S214404D50B4F17E5F3DD0A51705F0020545EAD07553
S214404D6056B9022D30D0032D30D13248F8BD194601
S214404D70204601F061FDF8BD01B3B1F1FF4F2CD0E4
S214404D80B6F1FF4F1AD0711AC9153C291ADC002C0F
S214404D9039DB2146184601F00BFF00F0FDFF00F01E
S214404DA0E5FE012D2CD0022D22D0002D2FD02249F9
S214404DB001F042FD214901F03DFDF8BD002F06DB24
S214404DC01F48F8BD1E48ECE71C48F8BDF8BD1D4816
S214404DD0F8BDBDE8F84000F0C9BEB6F1FF4F17D0A9
S214404DE0022DF1D0032DC0D0012D19D00020F8BDE2
S214404DF0114901F021FD0146104801F01BFDF8BDA8
S214404E0000F10040F8BD3C31C3DA0020C9E7F8BDE8
S214404E10022D0CD0032D08D0012D04D00A48F8BD31
S214404E204FF00040F8BD0948F8BD0948F8BD0948AC
S214404E30F8BD00BFDB0F49C02EBDBB33DB0F49407A
S214404E40DB0FC93FDB0FC9BFDB0F493FDB0F49BF55
S214404E50E4CB16C0E4CB16402DE9F04FA84A20F02C
S214404E600044944289B06EDDA64A944206460D46FA
S214404E701CDC0028A44940F3FC8001F0DBFCA34B7B
S214404E8024F00F049C4206466CD0A14901F0D2FCA7
S214404E9001462860304601F0CDFC9D4901F0CAFC31
S214404EA001276860384609B0BDE8F08F994A9442B9
S214404EB06ADDB4F1FF4F4EDAE715863FA4EBC754E0
S214404EC0204601F09DFF01F06BFD0346014620465B
S214404ED0059301F0AFFC4FF0874101F0B5FD8046E9
S214404EE001F08EFF01F05CFD014604464046069404
S214404EF001F0A0FC4FF0874101F0A6FD002107908D
S214404F0001F036FF002800F0CB802046002101F05B
S214404F102FFF002814BF012302237F4A019202215B
S214404F203A46009105A8294600F01CFA002E07468E
S214404F300DDA95E80C0002F1004203F100434742C7
S214404F402A606B6003E0002208604A60002738460B
S214404F5009B0BDE8F08F014601F06CFC00276860A0
S214404F602860F4E76D4901F065FC6D49044601F0A0
S214404F7061FC01462860204601F05CFC684901F06F
S214404F8059FC01276860E2E700F006FF6549804665
S214404F9001F05AFD4FF07C5101F04EFC01F030FF1D
S214404FA0074601F0FDFC5849834601F04DFD014699
S214404FB0404601F03FFC56498146584601F044FDC4
S214404FC01F2F824621DC584A791E24F0FF0352F8F0
S214404FD02120934219D05146484601F02BFC80468A
S214404FE0C5F800804146484601F024FC514601F091
S214404FF021FC002E6860AADA08F1004800F1004063
S214405000C5F8008068607F42A1E75146484601F0F7
S21440501011FCE215C0F3C753D31A082B8046DFDDD8
S2144050203E490392584601F00FFD804601464846E9
S21440503001F000FC01460446484601F0FBFB4146B1
S21440504001F0F8FB36498046584601F0FDFC4146E3
S21440505001F0F0FB01468246204601F0EBFB039A46
S214405060C0F3C753D21A192A80462EDC2860A146C0
S214405070B8E701F0E1FB254B24F00F049C420646BE
S21440508010D0234901F0D8FB01462860304601F095
S214405090D1FB1F4901F0D0FB4FF0FF37686056E761
S2144050A003233AE71D4901F0C7FB1D49044601F0BA
S2144050B0C3FB01462860204601F0BCFB184901F0BE
S2144050C0BBFB4FF0FF37686041E71849584601F090
S2144050D0BBFC01468046204601F0ACFB01468146BB
S2144050E0204601F0A7FB414601F0A4FB10490446C8
S2144050F0584601F0A9FC214601F09CFB82466AE72F
S214405100D80F493FE3CB1640800FC93FD00FC93F69
S21440511043443537800F4943F4C240000044353796
S21440512008A3852E84F9223F74C2400000A3852E32
S21440513032318D2420F00042B2F1FF4FF8B50446DC
S2144051402ED262B3002803463DDBB2F5000F4FEA8D
S214405150E0502CD37F38C3F3160343F40003C20752
S21440516048BF5B00002647105B00314619244FF0CD
S21440517080728D189D4202DC5B1BA9181644013CC8
S2144051804FEA43034FEA5202F3D113B1013626F0F9
S2144051900106701000F17C5000EBC750F8BDF8BD1A
S2144051A0014601F051FC214601F046FBF8BD14F4DF
S2144051B0000201D00EE00A465B001C0202F101012B
S2144051C0F9D5801AC6E7014601F034FB014601F0E6
S2144051D0EFFCF8BD4FF0FF32F3E700BF2DE9F84390
S2144051E020F00044B4F1485F06460F4649DA01F025
S2144051F007FE002800F09D803146304601F024FC32
S2144052004E49054601F020FC4D4901F015FB294664
S21440521001F01AFC4B4901F00DFB294601F014FC45
S214405220494901F009FB294601F00EFC474901F0C7
S21440523001FB294601F008FC454901F0FDFA2946E4
S21440524001F002FC80464FF07C51284601F0FCFB02
S21440525041460446284601F0F7FB394605463046A7
S21440526001F0F2FB0146284601F0E4FA01462046EA
S21440527001F0E0FA01464FF07E5001F0DBFABDE85F
S214405280F883014601F0E0FB2C49054601F0DCFBC3
S2144052902B4901F0D1FA294601F0D6FB294901F005
S2144052A0C9FA294601F0D0FB274901F0C5FA29463C
S2144052B001F0CAFB254901F0BDFA294601F0C4FBBE
S2144052C0234901F0B9FA294601F0BEFB214B9C4226
S2144052D08046B8DD204B9C4227DC04F17F442146C3
S2144052E04FF07E5001F0A6FA81464FF07C5128469A
S2144052F001F0AAFB214601F09DFA414604462846A5
S21440530001F0A2FB39460546304601F09DFB0146BA
S214405310284601F08FFA0146204601F08BFA0146F6
S214405320484601F087FABDE8F883DFF834900B4C26
S214405330DBE74FF07E50BDE8F88300BF4ED747AD61
S214405340F6740F317CF29334010DD037610BB63AC8
S214405350ABAA2A3D9999993E0000483F0000903EEE
S2144053600000383F2DE9F04FDDB0904C0893013BEC
S2144053700193D31E48BF131D669D0791DB1023EA99
S214405380E37354F82540099319460133A2EBC3034F
S2144053900594019A0493059B02909C18A1EB020683
S2144053A017D43444002501341FAFDDF89C8108E053
S2144053B058F8260001F0F4FA0136A64247F8040FE2
S2144053C007D0002EF4DA01362846A64247F8040FE6
S2144053D0F7D1059B002B28DB089B9E00029B351FC0
S2144053E01D4420AB1E44059B48AA4FF0000902EB23
S2144053F0830847AF019B002BC0F2B982029BB3469D
S2144054001C1FCA465BF8041D54F8040F01F01CFB31
S2144054100146504601F010FAAC428246F2D147F8B7
S21440542004AF474506F10406E4D105980899029C66
S2144054306FF04042034613449B000A440DF1300A85
S214405440191F04EB820553440AEB01020A920B93A0
S21440545080464FEA88035CAA0393D318B8F1000F3E
S21440546053F8509C22DD02EB8804543C0BAE47AF09
S2144054704FF06E51484601F0E7FA01F0C1FC01F0EA
S2144054808FFA4FF08741834601F0DEFA01464846E0
S21440549001F0D0F901F0B4FC54F8041946F8040FB2
S2144054A0584601F0C9F9BC428146E1D1049E4846BF
S2144054B0314600F0BBFC4FF07851044601F0C4FA88
S2144054C000F06EFC4FF0824101F0BEFA01462046E5
S2144054D001F0B0F9044601F093FC8146069001F0D5
S2144054E05FFA0146204601F0A5F9002E074640F334
S2144054F0E68008F1FF31C6F108035AF8212042FA47
S21440550003F000FA03F3D31A4A46C6F107040244EE
S2144055104AF82130069243FA04F4002C5BDD069BE1
S214405520B8F1000F03F10103069340F33B82DAF82B
S2144055300060002E40F09482B8F1010F40F355828F
S2144055405246012352F8046F002E00F04A82591C3E
S214405550C6F5807688454AF8236014DD5AF821203F
S2144055600233C2F1FF0298454AF821200BDD039A28
S21440557052440AEB830391461A68C2F1FF0243F88D
S214405580042B4B45F8D1049B002B11DD049B012BCB
S2144055904FF0010640F00E8208F1FF325AF82230F2
S2144055A003F07F034AF822300EE200BF38C64000C0
S2144055B0022C10D139464FF07E5001F03BF9074699
S2144055C004994FF07E5000F031FC0146384601F019
S2144055D031F9022407460021384601F0C9FB00286D
S2144055E000F08380059B08F1FF37BB420FDC08F1D3
S2144055F08043013B0B980AEB8303002253F80419BF
S214405600834242EA0102F9D1002A40F09D80059B80
S214405610013B5AF82330002B40F0F4810A9A0123CC
S21440562052F8041901330029FAD043441A46069327
S21440563008F10103934237DC0899099A01EB080701
S21440564020A901EB870706999E1801EB020906F18F
S2144056508046679A013E02EB860648AA02EB83081C
S214405660679B03EB8903039356F8040F01F098F900
S214405670019B47F8040B002B19DB029BBB461C1F03
S2144056804FF000095BF8041D54F8040F01F0DCF9F4
S2144056900146484601F0D0F8AC428146F2D1039B21
S2144056A048F8049B9E42DFD1DDF81880D1E6039B84
S2144056B04FF000099E4248F8049BD5D1F4E705D147
S2144056C008F1FF335AF82340241226E74FF07C5166
S2144056D001F06CFB002840F0538104460021384618
S2144056E001F046FB00287FF47DAF049E38467142A9
S2144056F000F09CFB4FF08741A146044601F056FB64
S214405700002800F08D814FF06E51204601F09CF944
S21440571001F076FB01F044F94FF08741054601F071
S21440572093F90146204601F085F801F069FB4AF8F6
S2144057302800284601F064FB08F101073346083389
S21440574004934AF8270012E0049A5AF82730083A99
S214405750A14604925BB907F18043013B0AEB830301
S21440576053F80419013F083A0029F9D004920499E5
S2144057704FF07E5000F05AFB002F0446C0F25C818A
S214405780BB0048A91A1D01EB0308019302924FF093
S2144057906E560AEB020B08F104055BF8040D01F0A7
S2144057A0FFF8214601F050F9314645F8040D2046F1
S2144057B001F04AF9D3450446EFD10026DDF814B08F
S2144057C00397A8F10408B246BBF1000FB8BF002506
S2144057D015DBA54EA54847460025002403E0544562
S2144057E00DDC56F8040F57F8041F01F02DF901465A
S2144057F0284601F021F80134A3450546EFDA5CABB4
S21440580003EB8A03A8F1040843F8A05C46AB434583
S2144058100AF1010AD8D1669B039F032B5AD8DFE8CA
S21440582003F08E5F5F02002F40F30481019A5CA96B
S2144058308B1834AC53F8A06CA51855F804AC314618
S214405840504600F0F9FF80460146504600F0F2FF11
S214405850314600F0F1FF286045F8048DAC424646DC
S214405860EBD1012F40F3E680019A5CA98B181444D3
S21440587053F8A06C25460DF1D40A55F8048C3146F1
S214405880404600F0D9FF07460146404600F0D2FFAA
S214405890314600F0D1FF286045F8047DAA453E46D3
S2144058A0EBD10020043436AD54F8041D00F0C4FF9C
S2144058B0A542F9D1B9F1000F00F0B980349A359B72
